:100000000C94C5010C94F6010C94F6010C94F601C5
:100010000C94F6010C94F6010C94F6010C94F60184
:100020000C94F6010C94BB0D0C94BB0D0C94BB0D01
:100030000C94F6010C94F6010C94F6010C94F60164
:100040000C94F6010C948D0D0C94F6010C94F601B1
:100050000C94F6010C94F6010C94F6010C94F90B37
:100060000C94F6010C94CD0C0C94A30C0C94F6019A
:100070000C94F6010C94F6010C94F6010C94F60124
:100080000C945F0D0C94F6010C94F6010C94F6019F
:100090000C946D0C0C94430C0C94F6010C94F6012A
:1000A0000C94F6010C94F6010C94310D0C94F601AD
:1000B0000C94F6010C94F6010C94F6010C94030DCB
:1000C0000C94F6010C94F6010C94F6010C94F601D4
:1000D0000C94F6010C94F6010C94F6010C94F601C4
:1000E0000C94F6010C9434080C9416040C94A70894
:1000F0000C94CB140C9428040C9435080C9415071C
:100100000C941A040C9486060C941E040C94080497
:100110000C94ED030C9410040C94E8050C94370E29
:100120000C94F8030C9478060C9424040C94F503B6
:100130000C9415060C941C080C940C040C942406C6
:100140000C94D7030C94E7050C94F1030C94D203A0
:100150000C9402040C94FE030C94C8060C94C8087A
:100160000C94E9030C9491080C944B0A00407A100B
:10017000F35A00A0724E18090010A5D4E80000E858
:100180007648170000E40B54020000CA9A3B0000B6
:1001900000E1F505000080969800000040420F0045
:1001A0000000A08601000000102700000000E80306
:1001B000000000006400000000000A0000000000D1
:1001C0000100000000002C76D888DC674F0823DF90
:1001D000C1DFAE59E1B1B796E5E3E453C63AE65163
:1001E000997696E8E6C28426EB898C9B62ED407C8A
:1001F0006FFCEFBC9C9F40F2BAA56FA5F490055A26
:100200002AF75C936B6CF9676DC11BFCE0E40D474A
:10021000FEF520E6B500D0ED902E0300943577056D
:100220000080841E080000204E0A000000C80C3325
:100230003333330F986E12831141EF8D2114893BB4
:10024000E65516CFFEE6DB18D1844B381BF77C1D34
:10025000901DA4BBE424203284725E228100C9F187
:1002600024ECA1E53D2700002100240027002A00FE
:100270002D003000330001010000040107010A01D4
:1002800000000A0B02090C0D0E0807030401000010
:10029000000000000000000000000000000000005E
:1002A000000000000000000000000000121110001B
:1002B000000000000000000000000000000000003E
:1002C000000000000000000020002300260029009C
:1002D0002C002F003200000100000301060109017B
:1002E00000002200250028002B002E0031003400E1
:1002F00002010000050108010B01050505050705C0
:1003000008080808020202020A0A08080404040491
:1003100001010101010101010303030303030303BD
:10032000040707070C0C0C0C0C0C0C0C020202024C
:1003300006060606060606060B0B0B0B0B0B0B0B35
:1003400001021020200808102040102040800201E7
:1003500002010804020101020408102040808040CC
:1003600020100804020180040201804020100804CB
:100370000201080402010102040810204080010269
:10038000040810204080370ECB1411241FBECFEF7D
:10039000D1E2DEBFCDBF00E00CBF13E0A0E0B2E0D1
:1003A000ECE2F8E300E00BBF02C007900D92A63B21
:1003B000B107D9F726E0A6EBB3E001C01D92AF323A
:1003C000B207E1F711E0C4ECD1E000E006C02197EC
:1003D0000109802FFE010E94D619C33CD10780E09D
:1003E0000807A9F70E94940F0C94041C0C940000B9
:1003F000FC01A089B18982E08C93A485B5851C920B
:10040000A685B7858FEC8C93108EA489B58986E07C
:100410008C93A289B3898C9180618C93A289B389D2
:100420008C9188608C93A289B3898C9180688C931D
:100430000288F389E02D80818F7D8083089510925A
:100440002706109226061092250610922406109276
:100450002306109222068DE991E09093290680935D
:1004600028068091180696EF980F943048F02EECED
:10047000280F243028F022EC280F283008F061C023
:100480002DEB30E030932306209322062BE931E058
:1004900030932506209324062CE231E03093270682
:1004A00020932606943050F02EEC280F243030F0A4
:1004B00022EC280FF0E0E0E0283010F4E8E6F0E06D
:1004C0002081943028F032EC380F383008F469C0BD
:1004D00031E0232B943048F09EEC980F943028F0B4
:1004E0008E53F0E0E0E0883010F4E8E6F0E020839E
:1004F0002091180636EF320F343008F454C08EECD9
:10050000820F843008F44FC082EC820F883008F4E8
:100510004DC090E080E09093200680931F06343019
:1005200008F047C02650330B81E001C0880F2A95A0
:10053000EAF7809321068091280690912906019779
:10054000F1F78091260690912706892B49F1E091D9
:100550000B04F0910C0486E0EC30F80709F13097B9
:1005600039F0A389B4899C918589809589238C93DE
:1005700080912A068E7F80932A0610920A04109298
:1005800009048CE096E090930C0480930B04E091B6
:100590001F06F0912006808190912106892B80838F
:1005A000089534E096CF8BE690E0B5CF8DE690E0ED
:1005B000B2CF88E0223309F4BCCF84E0233309F4BE
:1005C000B8CF82E0243309F4B4CF82EC820F8830B4
:1005D00018F42E53330BA8CF81E0ABCFCF92DF922C
:1005E000EF92FF92DC01A03282E0B807D4F5A53B80
:1005F000B10514F0A4EBB0E04091DF0528E830E04D
:10060000241B310947FD3395220F331F220F331F5F
:100610006901330FEE08FF084091E00528E532E05C
:10062000241B310947FD3395220F331F220F331F3F
:10063000032E000C440B550B2C193D094E095F0984
:10064000B7FF02C0B0E0A0E00E94A81824EB30E0A1
:1006500040E050E00E947E18C20ED31EE41EF51E3C
:10066000D601E091DE05E03380F52091DF0588E8D2
:1006700090E0821B910927FD9395880F991F880FA1
:10068000991FA817B90784F02091E00588E592E04A
:10069000821B910927FD9395880F991F880F991F39
:1006A000A817B9070CF4CD010297880F991F4FB70F
:1006B000F8942E2F30E0F901EE0FFF1FE20FF31F29
:1006C000E95BFA4F928381834FBFFF90EF90DF90F9
:1006D000CF900895CF92DF92EF92FF92CF93DF9366
:1006E000B0910006A0E08111AB2F8091010690E04F
:1006F000880F991FAC014A535D4FC0900606D090F9
:100700000706E0900806F090090630E020E0FA01C4
:10071000C591D491E881B90190E080E0EB23EA1320
:100720000AC02F5F3F4F6C157D058E059F0578F33E
:100730006FEF7FEFCB01DF91CF91FF90EF90DF90D4
:10074000CF900895282F30E0F901E058FD4F9491A3
:10075000F901E05CFC4F449126503D4FF901249192
:10076000222309F435C0992311F191509231F8F404
:10077000E92FF0E08827E054FC4F8F4F0C94D619F6
:10078000F103F503D203E903ED03D703F803FE03F6
:10079000020408040C04100416041A04D7031E04EF
:1007A00024042804809180008F7780938000E22FBA
:1007B000F0E0EE0FFF1FE052FD4FA591B4918FB70F
:1007C000F894EC91611148C040954E234C938FBF33
:1007D0000895809180008F7DE8CF80918000877F91
:1007E000E4CF84B58F7784BDE2CF84B58F7DFBCF16
:1007F0008091B0008F778093B000D9CF8091B00006
:100800008F7DF9CF809190008F7780939000CFCF2C
:10081000809190008F7DF9CF80919000877FF5CFF8
:100820008091A0008F778093A000C1CF8091A0001D
:100830008F7DF9CF8091A000877FF5CF8091200137
:100840008F7780932001B3CF809120018F7DF9CFE6
:1008500080912001877FF5CF4E2BB8CFCF93DF93C8
:1008600090E0FC01E05CFC4F249186509D4FFC0120
:1008700084918823C9F090E0880F991FFC01EA5900
:10088000FD4FA591B491FC01E052FD4FC591D4916B
:1008900061110DC09FB7F8948C91209582238C93A1
:1008A0008881282328839FBFDF91CF9108956230EC
:1008B00051F49FB7F8943C91822F809583238C93B9
:1008C000E8812E2BEFCF8FB7F894EC912E2B2C9341
:1008D0008FBFEACF90917B00977F90937B008653E8
:1008E000806480937C0080917A00806480937A0099
:1008F00080917A0086FDFCCF8091780090917900FC
:1009000008953FB7F8948091010490910204A0915A
:100910000304B091040426B5A89B05C02F3F19F02D
:100920000196A11DB11D3FBFBA2FA92F982F88276F
:10093000BC01CD01620F711D811D911D42E0660F4A
:10094000771F881F991F4A95D1F708958F929F921C
:10095000AF92BF92CF92DF92EF92FF924B015C0178
:100960000E9481046B017C010E9481046C197D0945
:100970008E099F09683E734081059105A8F321E027
:10098000821A9108A108B10888EEC80E83E0D81E2B
:10099000E11CF11C81149104A104B10429F7FF901A
:1009A000EF90DF90CF90BF90AF909F908F90089581
:1009B000CF92DF92EF92FF920F931F93CF93DF932B
:1009C000CDB7DEB7C054D1400FB6F894DEBF0FBE2E
:1009D000CDBF2FB7F8948091050490910604A091A3
:1009E0000704B09108042FBF4091020650910306FE
:1009F00060910406709105068C019D01041B150B86
:100A0000260B370BB901A801403D57406105710520
:100A100090F480910A06C05CDE4F0FB6F894DEBFFA
:100A20000FBECDBFDF91CF911F910F91FF90EF903F
:100A3000DF90CF9008958093020690930306A093D1
:100A40000406B09305061092FD051092FC05109265
:100A5000FB051092FA051092F90562E08091FE05FF
:100A60000E942E0461E070E080E090E00E94A60405
:100A700061E08091FE050E942E0460E08091FE05F9
:100A80000E94A2038091FF058551823020F58BE200
:100A900091E10197F1F762E08091FE050E942E043A
:100AA00080910B0690E08230910538F0880F991FF5
:100AB000880F991F05970197F1F7F89480E00E943D
:100AC0006A036F3F7F4F8F4F9F4F61F410920A066A
:100AD000789480E0A0CF64E170E080E090E00E9434
:100AE000A604D9CF81E00E946A036F3F7F4F8F4FEA
:100AF0009F4F61F38E010F5F1F4F6E018FEBC81A7E
:100B00008EEFD80A780180E00E946A03F7016083C3
:100B100071838283938381E00E946A03F701648377
:100B2000758386839783F8E0EF0EF11CEC14FD04C7
:100B300051F7789430E020E0F801C080D180E28065
:100B4000F3804481558166817781FFEFCF16DF0600
:100B5000EF06FF0631F04F3F8FEF58076807780721
:100B600019F410920A06B5CFF90183E0F595E795DF
:100B70008A95E1F7E750FA4F8081880FC416D506B1
:100B8000E606F70610F180832F5F3F4F085F1F4F87
:100B90002832310589F64091FD052091F9058091B3
:100BA000FA05280F3327331F8091FB05280F311DCD
:100BB0008091FC05820F932F911D992748171906E4
:100BC00081F681E080930A0626CF8160DCCF08950C
:100BD000AF92BF92CF92DF92EF92FF920F931F934B
:100BE000CF93DF936C017B018B01040F151FEB0189
:100BF0005E01AE18BF08C017D10759F06991D60140
:100C0000ED91FC910190F081E02DC6011995892BA1
:100C100079F7C501DF91CF911F910F91FF90EF9070
:100C2000DF90CF90BF90AF900895FC01538D448D1D
:100C3000252F30E0842F90E0821B930B541710F087
:100C4000CF96089501970895FC01918D828D981794
:100C500061F0A28DAE0FBF2FB11D5D968C91928D6C
:100C60009F5F9F73928F90E008958FEF9FEF08959D
:100C70002FB7F8948091050490910604A091070481
:100C8000B09108042FBF8093150490931604A0938D
:100C90001704B09318048DE094E00E94240697FF97
:100CA00026C02FB7F8948091050490910604A09176
:100CB0000704B09108042FBF409115045091160409
:100CC0006091170470911804841B950BA60BB70B49
:100CD0004091110450911204609113047091140416
:100CE00084179507A607B707B0F28FEF9FEF089517
:100CF000FC01918D828D981731F0828DE80FF11DE6
:100D0000858D90E008958FEF9FEF0895FC01918D00
:100D1000228D892F90E0805C9F4F821B91098F73F9
:100D2000992708958DE094E00E94860621E0892BA2
:100D300009F420E0822F08958AEA94E00E94860652
:100D400021E0892B09F420E0822F0895FC01A48D75
:100D5000A80FB92FB11DA35ABF4F2C91848D90E0DD
:100D600001968F739927848FA689B7892C93A089C0
:100D7000B1898C91837080648C93938D848D98134A
:100D800006C00288F389E02D80818F7D80830895DD
:100D9000EF92FF920F931F93CF93DF93EC0181E0CB
:100DA000888F9B8D8C8D98131AC0E889F989808172
:100DB00085FF15C09FB7F894EE89FF896083E889A5
:100DC000F98980818370806480839FBF81E090E097
:100DD000DF91CF911F910F91FF90EF900895F62E24
:100DE0000B8D10E00F5F1F4F0F731127E02E8C8DBE
:100DF0008E110CC00FB607FCFACFE889F989808103
:100E000085FFF5CFCE010E94A606F1CFEB8DEC0F4A
:100E1000FD2FF11DE35AFF4FF0829FB7F8940B8F1F
:100E2000EA89FB8980818062CFCFCF93DF93EC0189
:100E3000888D8823B9F0AA89BB89E889F9898C91C2
:100E400085FD03C0808186FD0DC00FB607FCF7CF7E
:100E50008C9185FFF2CF808185FFEDCFCE010E947E
:100E6000A606E9CFDF91CF91089580E090E0892B2D
:100E700029F00E949C0681110E94000080E090E011
:100E8000892B29F00E94920681110E94000080E0C7
:100E900090E0892B49F080E090E0892B29F00E94B6
:100EA000000081110E94000080E090E0892B49F051
:100EB00080E090E0892B29F00E94000081110C94C1
:100EC00000000895AF92BF92CF92DF92EF92FF920F
:100ED0000F931F93CF93DF936B017A01EC01CA50FC
:100EE000DC4F28813CE0389F8001399F100D112490
:100EF000A090D705B12C27FF1FC0FB0111821082E3
:100F000088818F5F888388819801280F311D87FD34
:100F10003A95F6012A153B051CF488818C30C4F102
:100F200080819181049680349C4908F473C0F60155
:100F300080819181049670C088819801280F311DAD
:100F400087FD3A952A153B05DCF68881A801480FF4
:100F5000511D87FD5A95FA01EE0FFF1FE40FF51F93
:100F6000E95BFA4F808186FFCBCF8881F801E80FDB
:100F7000F11D87FDFA95CF01EE0FFF1FE80FF91F56
:100F8000E95BFA4F808160E08F730E94A203B8CFC3
:100F9000808191812881A801420F511D27FD5A951A
:100FA0009A01FA01EE0FFF1FE20FF31FE95BFA4F00
:100FB00021813281820F931FF70191838083888181
:100FC0009801280F311D87FD3A95F901EE0FFF1F9B
:100FD000E20FF31FE95BFA4F808186FF22C0888110
:100FE000080F111D87FD1A95F801EE0FFF1FE00F86
:100FF000F11FE95BFA4F808161E08F73DF91CF9140
:101000001F910F91FF90EF90DF90CF90BF90AF9026
:101010000C94A20380E49CE9F701918380838FEF15
:101020008883DF91CF911F910F91FF90EF90DF9018
:10103000CF90BF90AF90089520910B0430910C0495
:101040002817390771F49091090480910A049817C0
:1010500041F0E0910904F0E0EA54FC4F808190E017
:1010600008958FEF9FEF08950895EF92FF920F93E9
:101070001F93CF93DF93DC015C96ED90FC905D971E
:10108000E114F10479F481E090E013969C938E933F
:10109000129790E080E0DF91CF911F910F91FF9028
:1010A000EF9008955196ED91FC91529750968C9146
:1010B0005097982F90950FB75E962C915E97122FB0
:1010C000127021FD6095F8942081112319F1282BCD
:1010D0002083E7012197F1F728E0462F50E0308187
:1010E00060FF1AC0382B3083E7012197F1F7BA016E
:1010F00075956795215089F7112381F080818923A7
:1011000080830FBF5C968D919C910197F1F781E0F0
:1011100090E0C1CF2923DCCF3923E5CF9081892B03
:10112000EFCF20910B0430910C042817390761F49C
:1011300080910A042091090490E0805C9F4F821BFB
:1011400091098F739927089590E080E00895209188
:101150000B0430910C0428173907B9F49091090455
:1011600080910A04981789F0E0910904F0E0EA54AC
:10117000FC4F80812091090430E02F5F3F4F2F7397
:1011800033272093090490E008958FEF9FEF08958F
:1011900090E080E00895CF93DF93C091FB03D0915E
:1011A000FC03C53BD1057CF4CE010E94EE026FE04A
:1011B00070E080E090E00E94A6042296D093FC03A9
:1011C000C093FB03EACFDF91CF91089560E088E2FE
:1011D0000C94A20360E082E20E94A20360E083E23A
:1011E0000C94A20368EC70E080E090E00C94A604FC
:1011F000CF93DF93EC0160E08E810E94A20361E057
:101200008E810E94A20360E08E810E94A2038BE87F
:1012100091E00197F1F7DF91CF910895CF92DF929E
:10122000EF92FF920F931F93CF93DF936C017C019A
:1012300087E0E80EF11CD0E0C0E0062F10E0B80116
:101240000C2E02C0759567950A94E2F76170F7015C
:1012500081917F010E94A2032196C430D10579F7C4
:10126000C601DF91CF911F910F91FF90EF90DF901A
:10127000CF900C94F808CF92DF92EF92FF920F93E9
:101280001F93CF93DF93EC01F62E642F8C810E9485
:10129000A2038D818F3F19F060E00E94A2030F2D01
:1012A00010E08F8584FF25C06E0187E0C80ED11C39
:1012B000F12CE12CB8010E2C02C0759567950A94AB
:1012C000E2F76170F60181916F010E94A203FFEFC6
:1012D000EF1AFF0A88E0E816F10461F7CE01DF910A
:1012E000CF911F910F91FF90EF90DF90CF900C94D2
:1012F000F808B80184E0759567958A95E1F7CE0105
:101300000E940E096F2DCE01DF91CF911F910F9199
:10131000FF90EF90DF90CF900C940E0940E0682F83
:1013200081EE95E00C943B0981E00E948E098BE3ED
:101330009FE10197F1F70895CF93DF93813029F072
:101340009091F00598609093F0058093F4051092C9
:10135000F50580E48093F60580E18093F70580E54C
:101360008093F80561E08091E5050E942E0480914C
:10137000E6058F3F19F061E00E942E0461E0809144
:10138000E7050E942E04C1EED5E09E01215E3540A6
:101390008091F00584FD0BC084E090E02196281731
:1013A000390744F461E08E810E942E04EECF88E07C
:1013B00090E0F4CF8BE39DE00197F1F760E080913E
:1013C000E5050E94A20360E08091E7050E94A20368
:1013D0008091E6058F3F19F060E00E94A2038091A2
:1013E000F00584FD34C063E081EE95E00E940E09B3
:1013F000CBE4D6E4CE010197F1F763E081EE95E00E
:101400000E940E092197F1F763E081EE95E00E94BA
:101410000E0983E592E00197F1F762E081EE95E035
:101420000E940E098091F00580620E948E0984E07E
:101430008093F1058CE00E948E090E94940982E05D
:101440008093F20586E0DF91CF910C948E09806243
:101450000E948E098BE496E40197F1F78091F005E4
:1014600080620E948E0983E592E00197F1F78091F6
:10147000F00580620E948E09D5CF9091F4058917FE
:1014800010F08FEF890FE82FF0E0EF51FA4F8489C9
:1014900080680C948E0941E00E943B0981E090E055
:1014A0000895FB0101900020E9F73197AF01461B39
:1014B000570BDC01ED91FC910280F381E02D199432
:1014C000CF93DF93E8EDF5E0448155816081718130
:1014D0008CE096E00E94E805EC0166E372E08CE0A7
:1014E00096E00E94510A8C0F9D1FDF91CF910895C5
:1014F000CF93DF936AE18CE096E00E943508EC011F
:1015000066E372E08CE096E00E94510A8C0F9D1F0A
:10151000DF91CF9108950F931F93CF93DF93EC0149
:101520000E94510A8C0166E372E0CE010E94510ACA
:10153000800F911FDF91CF911F910F91089581E04E
:101540008093FF0369E372E08CE096E00E948B0ACF
:101550006FE472E08CE096E00E948B0A64E670E033
:1015600080E090E00E94A6040C94780A81E08093C9
:10157000FE036EE672E08CE096E00E948B0A65E85E
:1015800072E08CE096E00E948B0A0E94600A64E69A
:1015900070E080E090E00E94A6040C94780A0C941D
:1015A000510A8F929F92AF92BF92CF92DF92EF92A9
:1015B000FF92CF93DF93CDB7DEB7A1970FB6F89424
:1015C000DEBF0FBECDBF6C010E94940963EB72E0D9
:1015D00081EE95E00E94CF0A0D2C000CEE08FF086A
:1015E000F7FE44C041E06DE281EE95E00E943B09C8
:1015F00022273327A9012C193D094E095F0919A299
:10160000CE0181967C019AE0892E912CA12CB12CDF
:10161000CA01B901A50194010E94B018605DF701EB
:1016200062937F01211531054105510589F7E114C8
:10163000F10429F0B70181EE95E00E94510A61ECB6
:1016400072E081EE95E00E94CF0AA1960FB6F89461
:10165000DEBF0FBECDBFDF91CF91FF90EF90DF9047
:10166000CF90BF90AF909F908F900895A701960163
:1016700019A2CE0181967C018AE0882E912CA12CA2
:10168000B12CCA01B901A50194010E94B018605D96
:10169000F70162937F01211531054105510589F755
:1016A000C6CF2091DC053091DD05232B39F421E0F4
:1016B000FC018081882361F020E00AC0BC01809198
:1016C000D8059091D9050E94F41B21E0892BA1F740
:1016D000822F0895CF93DF93EC0188819981009741
:1016E00011F00E94811A198218821D821C821B82AD
:1016F0001A82DF91CF910895FC018081918100973A
:1017000011F00C94811A08950F931F93CF93DF93D8
:10171000EC0188819981009759F02A813B81261735
:10172000370730F081E0DF91CF911F910F9108953D
:101730008B016F5F7F4F0E940A1B009759F09983BE
:1017400088831B830A832C813D81232B59F7FC015D
:101750001082E8CF80E0E7CFEF92FF920F931F93C4
:10176000CF93DF936115710541F480E0DF91CF9154
:101770001F910F91FF90EF90089541155105B1F021
:101780007B01EC010C811D81040F151FB8010E9423
:10179000840B882351F3288139818C819D81B70185
:1017A000820F931F0E94FD1B1D830C8381E0DECFFF
:1017B000EF92FF920F931F93CF93DF93EC017B0186
:1017C0008A01BA010E94840B81110BC0CE010E94D4
:1017D0006A0BCE01DF91CF911F910F91FF90EF9097
:1017E00008951D830C83B701888199810E94FD1B98
:1017F000F0CF1F920F920FB60F9211242F933F93A9
:101800008F939F93AF93BF938091050490910604AB
:10181000A0910704B09108043091000423E0230F45
:101820002D3758F50196A11DB11D2093000480931A
:10183000050490930604A0930704B09308048091D4
:10184000010490910204A0910304B0910404019654
:10185000A11DB11D8093010490930204A093030481
:10186000B0930404BF91AF919F918F913F912F91BD
:101870000F900FBE0F901F90189526E8230F029629
:10188000A11DB11DD2CF1F920F920FB60F9211243E
:101890000BB60F922F933F934F935F936F937F936A
:1018A0008F939F93AF93BF93EF93FF938DE094E05B
:1018B0000E94A606FF91EF91BF91AF919F918F91EA
:1018C0007F916F915F914F913F912F910F900BBE40
:1018D0000F900FBE0F901F9018951F920F920FB68A
:1018E0000F9211240BB60F922F938F939F93EF9328
:1018F000FF93E0911D04F0911E048081E091230488
:10190000F091240482FD1DC09081809126048F5F98
:101910008F7320912704821741F0E0912604F0E0B4
:10192000E35FFB4F958F80932604FF91EF919F918A
:101930008F912F910F900BBE0F900FBE0F901F90A5
:1019400018958081F2CF1F920F920FB60F9211243B
:101950000BB60F922F933F934F935F936F937F93A9
:101960008F939F93AF93BF93EF93FF938AEA94E093
:101970000E94A606FF91EF91BF91AF919F918F9129
:101980007F916F915F914F913F912F910F900BBE7F
:101990000F900FBE0F901F9018951F920F920FB6C9
:1019A0000F9211240BB60F922F938F939F93EF9367
:1019B000FF93E091BA04F091BB048081E091C004F0
:1019C000F091C10482FD1DC090818091C3048F5F9E
:1019D0008F732091C404821741F0E091C304F0E0BA
:1019E000E655FB4F958F8093C304FF91EF919F9134
:1019F0008F912F910F900BBE0F900FBE0F901F90E5
:101A000018958081F2CF1F920F920FB60F9211247A
:101A10000BB60F922F933F934F935F936F937F93E8
:101A20008F939F93AF93BF93EF93FF9348E251E05F
:101A300064E271E090E080E00E946207FF91EF9124
:101A4000BF91AF919F918F917F916F915F914F91D6
:101A50003F912F910F900BBE0F900FBE0F901F90D4
:101A600018951F920F920FB60F9211240BB60F927A
:101A70002F933F934F935F936F937F938F939F9396
:101A8000AF93BF93EF93FF9348EA50E064EA70E0AE
:101A900083E090E00E946207FF91EF91BF91AF91C8
:101AA0009F918F917F916F915F914F913F912F9176
:101AB0000F900BBE0F900FBE0F901F9018951F92A6
:101AC0000F920FB60F9211240BB60F922F933F93E4
:101AD0004F935F936F937F938F939F93AF93BF9336
:101AE000EF93FF9348E950E064E970E082E090E012
:101AF0000E946207FF91EF91BF91AF919F918F91EB
:101B00007F916F915F914F913F912F910F900BBEFD
:101B10000F900FBE0F901F9018951F920F920FB647
:101B20000F9211240BB60F922F933F934F935F9315
:101B30006F937F938F939F93AF93BF93EF93FF9395
:101B400048E850E064E870E081E090E00E946207BD
:101B5000FF91EF91BF91AF919F918F917F916F9185
:101B60005F914F913F912F910F900BBE0F900FBE41
:101B70000F901F9018951F920F920FB60F9211247D
:101B80000BB60F922F933F934F935F936F937F9377
:101B90008F939F93AF93BF93EF93FF93E0910B04C9
:101BA000F0910C04309749F0A685B7858585968D10
:101BB00091FF16C09C918923B1F4FF91EF91BF91E1
:101BC000AF919F918F917F916F915F914F913F91D5
:101BD0002F910F900BBE0F900FBE0F901F90189576
:101BE0009C91892351F7A389B4899C91858980951B
:101BF00089238C93868997890197F1F7608D718D80
:101C0000A685B785558538E020E0CB010197F1F72F
:101C1000822F90E095958795282F4C91452309F0C8
:101C20002068315091F7868D81FD209580910A04BE
:101C300090E001968F73992730910904381799F035
:101C4000A0910A04B0E0AA54BC4F2C9380930A04DC
:101C5000828D938D0197F1F7A389B4898C91958931
:101C6000892B8C93AACF868D8160868FF1CFCF93FD
:101C70001092100410920F0488EE93E0A0E0B0E000
:101C80008093110490931204A0931304B09314044E
:101C90002AE032E030930E0420930D044DEC50E026
:101CA00050931A04409319044CEC50E050931C04D8
:101CB00040931B0448EC50E050931E0440931D04D5
:101CC00049EC50E05093200440931F044AEC50E04C
:101CD00050932204409321044EEC50E0509324048E
:101CE0004093230410922604109227041092280493
:101CF000109229041092AD041092AC048093AE04AB
:101D00009093AF04A093B004B093B1043093AB04AC
:101D10002093AA0425EC30E03093B7042093B60456
:101D200024EC30E03093B9042093B80420EC30E088
:101D30003093BB042093BA0421EC30E03093BD040F
:101D40002093BC0422EC30E03093BF042093BE0407
:101D500026EC30E03093C1042093C0041092C304F9
:101D60001092C4041092C5041092C60410920F067B
:101D700010920E068093100690931106A0931206FF
:101D8000B093130688E292E090930D0680930C06C0
:101D90001092230610922206109225061092240615
:101DA00010922706109226061092290610922806F5
:101DB00060912A066E7F6D7F60932A06669561703A
:101DC00081E068278AE00E94A20361E08AE00E9425
:101DD0002E04EAE4F3E0E491E0931C06E4E0F3E08F
:101DE000E491F0E0EE0FFF1FE052FD4F85919491DA
:101DF00090931E0680931D0660E089E00E942E04E9
:101E000080912A0681FD04C061E089E00E94A2035E
:101E100089E080931806E9E4F3E0E491E093190681
:101E2000E3E0F3E0E491F0E0EE0FFF1FEA53FD4F33
:101E30008591949190931B0680931A0687E0809376
:101E4000FE058BE08093FF05E7E4F3E0E491E09387
:101E50000006E1E0F3E0E491E093010680E89EE310
:101E6000A0E0B0E08093060690930706A0930806D2
:101E7000B09309061092E4051092E3058CE192E01C
:101E80009093E2058093E1058AE18093E505CFEF29
:101E9000C093E6058BE18093E70586E18093E80532
:101EA00087E18093E90588E18093EA0589E18093E1
:101EB000EB051092EC051092ED051092EE051092D4
:101EC000EF051092F00581E00E949C098091D705F2
:101ED000803338F591E0980F9093D7058093DE0515
:101EE00090E0FC01EE0FFF1FE80FF91FE95BFA4FCE
:101EF00088EB9BE0928381831092D9051092D805DC
:101F00001092DB051092DA051092DD051092DC05C7
:101F100050E040E068E372E088ED95E0CF910C94EA
:101F2000D80BC093DE05E8CFCF93DF93CDB7DEB7F4
:101F3000AD970FB6F894DEBF0FBECDBF789484B5D1
:101F4000826084BD84B5816084BD85B5826085BDB5
:101F500085B5816085BD80916E00816080936E0043
:101F60001092810080918100826080938100809135
:101F700081008160809381008091800081608093E6
:101F800080008091B10084608093B1008091B000A6
:101F900081608093B0008091910082608093910075
:101FA0008091910081608093910080919000816088
:101FB000809390008091A10082608093A100809125
:101FC000A10081608093A1008091A0008160809336
:101FD000A0008091210182608093210180912101E4
:101FE0008160809321018091200181608093200194
:101FF00080917A00846080937A0080917A00826078
:1020000080937A0080917A00816080937A00809139
:102010007A00806880937A001092C10084E00E9468
:102020009C090E941F028DE094E00E94F80162E08A
:102030008091FE050E942E042FB7F894809105042C
:1020400090910604A0910704B09108042FBF805D11
:102050009740A109B1098093020690930306A093CB
:102060000406B093050687E380930B068091DE0596
:10207000803308F052C061E084E00E942E04809119
:10208000DE05282F30E0F901EE0FFF1FE20FF31FEE
:10209000E95BFA4F9081907C946090831092DF0509
:1020A0001092E0052CE0622F0E94CA19829FB001B5
:1020B000112430E020E0AB01420F531FFA01EE0F74
:1020C000FF1FE40FF51FE95BFA4F908196FD17C0E3
:1020D0002F5F3F4F2C30310571F7813009F055C02B
:1020E0001092800082E0809381001092850010920F
:1020F0008400B19A80916F00826080936F00E091BC
:10210000DE058E2F90E0FC01EE0FFF1FE80FF91F98
:10211000E95BFA4F80818064808390E080E00E94D8
:10212000EE0263EC72E08DE094E00E948B0A1A826A
:1021300019821C821B821E821D8250E040E068E3EF
:1021400072E0CE0101960E94D80B0E94380697FDDE
:1021500048C08AA31BA2ED80FE808FEFE81AF80A20
:10216000B701CE0101960E94840B882371F3298167
:102170003A818D819E81BE016E5D7F4F820F931FDC
:102180000E94FD1BFE82ED82E0CF823061F410924E
:10219000900080939100109295001092940088BB5B
:1021A00080937100ACCF833069F41092A00082E07C
:1021B0008093A1001092A5001092A40089BB809387
:1021C00072009DCF81119BCF1092200182E08093FD
:1021D000210110922501109224018ABB8093730083
:1021E0008ECF8091D8059091D905009709F4A7C0AA
:1021F00069817A816115710509F49FC04091DA0502
:102200005091DB052D813E814217530708F495C09C
:102210000E94FD1B8D819E819093DD058093DC05DE
:102220001E821D82CE0101960E947C0B61E08EE130
:102230000E942E0460E088E30E942E0460E089E39F
:102240000E942E0461E082E20E942E0461E083E29B
:102250000E942E0461E086E20E942E0461E088E282
:102260000E942E0460E086E20E94A2030E94E6081B
:102270000E941F028AEA94E00E94F80133243394FA
:1022800064EF71E080E090E00E94A60486E30E9483
:102290006A0424E630E0DC010E94DE192FEF33E00F
:1022A00040E050E00E947E18490186E30E946A04E3
:1022B00084E1881691040CF059C01092FA03C4010D
:1022C0000E94D10A81E00E943D0A69EC72E081EE31
:1022D00095E00E94CF0A82E00E943D0A6AED72E01A
:1022E00081EE95E00E94CF0A83E00E943D0A65EEF0
:1022F00072E081EE95E00E94CF0A61E086E20E94E2
:10230000A20364E670E080E090E00E94A6040E94D0
:10231000D804882359F08091FF058B3038F08D3038
:1023200008F459C08551823008F487C0412C512CE3
:1023300030EC632E3FE7732E6CC00E94811A8981B6
:102340009A819093D9058093D8058B819C81909335
:10235000DB058093DA058D819E819093DD05809366
:10236000DC051A8219821C821B825ACFC401449751
:102370008997C8F41092FA03C4010E94D10A81E03F
:102380000E943D0A60EF72E081EE95E00E94CF0A64
:1023900082E00E943D0A65EE72E081EE95E00E94C7
:1023A000CF0A60E0ABCFC4010E94D10A8091FA034A
:1023B0008111F7CF3092FA036CEF72E08CE096E077
:1023C0000E948B0A64E670E080E090E00E94A60420
:1023D0000E94780AE6CF6091FA0570E090E080E014
:1023E0000E9461172DEC3CEC4CEC5DE30E94C017A1
:1023F0006B017C016091F90570E090E080E00E9443
:1024000061179B01AC01C701B6010E94E2182B01C4
:102410003C010E94D804882309F461C18091FF0522
:102420008C3009F437C1D8F48B30B1F1C12CD12CE8
:1024300090ECE92E9FE7F92E59C06091F905709153
:10244000FA0576276727762790E080E00E945F17DD
:102450002DEC3CEC4CEC5DE30E94C017D8CF8551CD
:10246000823020F7B090FB056B2D70E0762F662749
:1024700066277F778091FC05682B90E080E00E94C2
:102480005F172DEC3CEC4CEC5DE30E94C0176B0138
:102490007C01B7FE2BC01EC16091FB0570E090E08F
:1024A00080E00E945F176B017C011091FC0517FF13
:1024B0000AC0AC019B0160E070E080E89FEB0E94E5
:1024C000E1186B017C011F70612F70E090E080E0EB
:1024D0000E9461172DEC3CEC4CEC5DE30E94C017B0
:1024E000A70196010E94E2186B017C01A7019601E9
:1024F000C701B6010E94C519882331F063E373E078
:102500008DE094E00E948B0A89E30E946A04BC017A
:10251000990F880B990B0E94611720E030EC4FE770
:1025200054E40E944E1920E030E040E651E40E945D
:10253000C0174B015C011091FD0320E030E040EA40
:1025400051E4C701B6010E945A1787FFCFC011118D
:102550000AC063E573E08DE094E00E94CF0A0E9418
:10256000CB083092FD030E94E60861E08EE10E94F4
:10257000A2030E94EA080E94940980E00E943D0A9A
:1025800069E673E081EE95E00E94CF0A0E94F208AE
:102590000E94F2080E94940981E00E943D0A1BA259
:1025A0001AA21DA21CA21FA21EA28E010F5F1F4F06
:1025B00022E044E0C501B4010E94EB14009709F445
:1025C00077C1FC0101900020E9F73197AF01481B6A
:1025D000590BBC01CE0182960E94D80B19A618A6F1
:1025E0001BA61AA61DA61CA645E050E06CE773E0EA
:1025F000CE0188960E94D80B1A8219821C821B82F7
:102600001E821D8268A579A56115710531F04CA562
:102610005DA5CE0101960E94D80B4EA15FA16AA1D3
:102620007BA1CE0101960E94AC0B811104C0CE01AA
:1026300001960E946A0B4D815E8169817A8181EEEB
:1026400095E00E94E805CE0101960E947C0BCE0128
:1026500088960E947C0BCE0182960E947C0B82E0C1
:102660000E943D0A20E030E040E051E4C501B401A1
:102670000E94C01918160CF020C11092FF0380911F
:10268000FE03811102C00E94B60A0E94F2080E9455
:102690003507F6CD1091FB05612F70E090E080E0EA
:1026A0000E945F176B017C016091FC056F7070E008
:1026B00090E080E00E9461172DEC3CEC4CEC5DE377
:1026C0000E94C017A70196010E94E2186B017C01CD
:1026D00017FF0CCFF7FAF094F7F8F09407CFC12C5E
:1026E000D12C80ECE82E8FE7F82E08CF20E030E0E8
:1026F00048EC51E4C701B6010E94C019181694F5C0
:1027000061E088E20E94A2031123F9F06EE573E014
:102710008DE094E00E94CF0AE090FB03F090FC0370
:10272000F7FC11C0C7010E94EE026FE070E080E08C
:1027300090E00E94A60482E0E81AF108F092FC03FF
:10274000E092FB03E9CF1092FD0361E082E20E9478
:10275000A20360E083E20E94A20360E08EE10E9497
:10276000A20309CF11110AC063E573E08DE094E084
:102770000E94CF0A0E94CB083092FD030E94E60817
:102780000E94EA0860E08EE10E94A2030E94940980
:1027900080E00E943D0A19A618A61BA61AA61DA62F
:1027A0001CA68E010F5F1F4F22E044E0C301B2015F
:1027B0000E94EB14009729F4CE0188960E946A0BC0
:1027C0000DC0FC0101900020E9F73197AF01481BD3
:1027D000590BBC01CE0188960E94D80B1A8219822F
:1027E0001C821B821E821D8246E050E065E773E07A
:1027F000CE0101960E94D80B1BA21AA21DA21CA2F8
:102800001FA21EA269817A816115710531F04D8187
:102810005E81CE0182960E94D80B4CA55DA568A56D
:1028200079A5CE0182960E94AC0B811104C0CE0125
:1028300082960E946A0B4EA15FA16AA17BA181EEE4
:1028400095E00E94E805CE0182960E947C0BCE01A5
:1028500001960E947C0BCE0188960E947C0B20E0A2
:1028600030E048E452E4C301B2010E945A1787FFE6
:1028700007C061E088E20E94A2030E94EA0888CEB5
:1028800020E030E040EA52E4C301B2010E94C019E6
:1028900018165CF460E082E20E94A20361E083E229
:1028A0000E94A2030E94E60873CE0E94EA08FACFB3
:1028B000CE0182960E946A0B91CE20E030E040EF7C
:1028C00050E4C501B4010E94C019181604F582E84D
:1028D00093E00E94510B81110DC08CE893E00E949F
:1028E000510B811107C083E993E00E94510B8823AB
:1028F00009F4C3CE1092FE031092FF0369E973E05E
:102900008CE096E00E948B0A0E94600ABECE20E016
:1029100030E040ED50E4C501B4010E945A1787FF32
:1029200025C020E030E040EB50E4C501B4010E9436
:10293000C01987FD1BC083EA93E00E94510B8111EF
:102940001FC088EA93E00E94510B811119C08EEAE2
:1029500093E00E94510B811113C01092FE038091ED
:10296000FF03811192CE0E949F0A8FCE20E030E0BB
:1029700040EB50E4C501B4010E945A1787FDEDCF2A
:102980001092FE031092FF0369E973E08CE096E079
:102990000E948B0A7ACE88ED95E00E947C0B88E23B
:1029A00092E090930D0680930C0680910B04909119
:1029B0000C048C50964071F4E0911F06F0912006B3
:1029C00090818091210680958923808310920C0448
:1029D00010920B040895EF920F931F93CF93DF9300
:1029E000E80134E047FD34E1042E000C550B57FF9D
:1029F00003C0519541955109E32E022F242FAE01BA
:102A00000E940915CE01DF91CF911F910F91EF9098
:102A100008958F929F92AF92BF92CF92DF92EF92E2
:102A2000FF920F931F93CF93DF9300D000D000D07D
:102A3000CDB7DEB76A01F22EB02E102FFBE3AF2E1A
:102A4000A01608F41BE31F5F012F27E0AE014F5FC4
:102A50005F4F0E948216BC018981982F9970913036
:102A600009F44EC09BE2E1FC04C09E2D9170E0FC95
:102A700049C05E2D5071E82FE87083FF55C084E097
:102A8000911101C083E0EF2DE81B8F1508F0E0E005
:102A9000D6018E2F20E25523C9F1992329F0D601C2
:102AA0009C93C60101966C0196012D5F3F4FE2FE9B
:102AB00033C08EE4D6018C9391E411969C931197C8
:102AC00012968C93D9018E2F90E281112AC0E20FC9
:102AD000F32FF11D10828EEF9FEF29960FB6F89419
:102AE000DEBF0FBECDBFDF91CF911F910F91FF9041
:102AF000EF90DF90CF90BF90AF909F908F90089510
:102B00009DE2B7CF90E2B5CF2D9381508111FCCFDC
:102B1000CE0ED11CE0E0C1CF8EE6D6018C9391E6BB
:102B2000CCCF9D938150D1CF482F447082FF3DC0C0
:102B300084E0911101C083E08F1510F4EF2DE81BA4
:102B4000D6018E2F20E2552309F1992329F0D601D1
:102B50009C93C60101966C0196012D5F3F4FE2FEEA
:102B60001BC089E4D6018C938EE411968C93119747
:102B700086E412968C93D9018E2F90E2882309F473
:102B8000A6CF9D938150FACF2D9381508111FCCF18
:102B9000CE0ED11CE0E0D9CF89E6D6018C938EE62B
:102BA00011968C93119786E6E4CF9B0177FF02C0C4
:102BB00030E020E0A1E0B0E0911102C0B0E0A0E080
:102BC000F9013196AE0FBF1F8B2C912CBB2009F45D
:102BD00061C05401EFEFAE1ABE0AAA0DBB1DFA1672
:102BE0001B0619F014F04F2D4A1B511188C0E3FC4D
:102BF00059C07601A42FB0E2A1114FC0C40ED11C60
:102C0000992309F45BC040E0D6011196F601908348
:102C10006D01552309F448C0012F060F9A81582FE2
:102C2000507184FF03C0913309F4015010160CF069
:102C300047C0093008F008E0EEE2FE2E5B01A01A62
:102C4000B10885019194819491082F3F320729F4AE
:102C5000D601FC92F60131966F016217730794F169
:102C6000021713077CF5DB01A21BB30BAA24A39464
:102C7000B12CAC0EBD1EAA0DBB1D11968C9121501E
:102C80003109D601119628153905F4F0F601808333
:102C90006D01DBCFB12CA12CA0CFF701B1937F0147
:102CA000A150AACF9111B0CFD601942F50E302C00A
:102CB0005D9391509111FCCFC40ED11C40E0ACCF7C
:102CC00001E0BACF80E3DBCF6217730731F49633AC
:102CD00088F4953311F4552369F0F6018083FD01E2
:102CE000842F90E2811108C0A40FB11D1C9290E0C6
:102CF00080E0F3CE81E3F1CF91938150F3CF911136
:102D000083CF8ACF283008F027E03327DA01990FE4
:102D1000311D87FD916000966105710539F43260BF
:102D20002E5F3D9330E32A95E1F708959F3F30F001
:102D300080387105610509F03C5F3C5F3D9391303F
:102D400008F08068911DDF93CF931F930F93FF923C
:102D5000EF92192F987F9695E92F96959695E90F02
:102D6000FF27EA53FE4F99273327EE24FF24A701BC
:102D7000E70105900894079428F4360FE71EF81E23
:102D8000491F511D660F771F881F991F0694A1F7D1
:102D90000590079428F4E70EF81E491F561FC11D21
:102DA000770F881F991F661F0694A1F70590079457
:102DB00028F4F80E491F561FC71FD11D880F991FF1
:102DC000661F771F0694A1F70590079420F4490F1A
:102DD000561FC71FD81F990F661F771F881F06949D
:102DE000A9F784911095177041F0D695C79557951E
:102DF0004795F794E7941A95C1F7ECE6F1E06894EB
:102E00001590159135916591959105907FE2739597
:102E1000E118F10A430B560BC90BD009C0F7E10CBE
:102E2000F11E431F561FC91FD01D7EF4703311F4CD
:102E30008A95E6CFE894015030F0080F0AF4002795
:102E4000021708F4202F2395022F7A3328F079E314
:102E50007D932A95E9F710C07D932A9589F606940B
:102E600097956795379517951794E118F10A430BD5
:102E7000560BC90BD00998F023957E9173957A3340
:102E800008F070E37C932013B8F77E9170617D9316
:102E900030F0839571E37D9370E32A95E1F7112477
:102EA000EF90FF900F911F91CF91DF91992787FDB0
:102EB000909508950E949C1708F481E00895E89485
:102EC00009C097FB3EF490958095709561957F4F72
:102ED0008F4F9F4F9923A9F0F92F96E9BB27939520
:102EE000F695879577956795B795F111F8CFFAF430
:102EF000BB0F11F460FF1BC06F5F7F4F8F4F9F4F61
:102F000016C0882311F096E911C0772321F09EE8BE
:102F1000872F762F05C0662371F096E8862F70E024
:102F200060E02AF09A95660F771F881FDAF7880FFE
:102F30009695879597F90895990F0008550FAA0B54
:102F4000E0E8FEEF16161706E807F907C0F01216BC
:102F50001306E407F50798F0621B730B840B950BBF
:102F600039F40A2661F0232B242B252B21F4089514
:102F70000A2609F4A140A6958FEF811D811D0895B1
:102F80000E94D3170C9444180E94361838F00E94FF
:102F90003D1820F0952311F00C942D180C94331843
:102FA00011240C9478180E94551870F3959FC1F362
:102FB000950F50E0551F629FF001729FBB27F00DE7
:102FC000B11D639FAA27F00DB11DAA1F649F66273C
:102FD000B00DA11D661F829F2227B00DA11D621F8B
:102FE000739FB00DA11D621F839FA00D611D221F45
:102FF000749F3327A00D611D231F849F600D211D29
:10300000822F762F6A2F11249F5750409AF0F1F0AB
:1030100088234AF0EE0FFF1FBB1F661F771F881F14
:1030200091505040A9F79E3F510580F00C942D1807
:103030000C9478185F3FE4F3983ED4F38695779527
:103040006795B795F795E7959F5FC1F7FE2B880FBA
:10305000911D9695879597F9089597F99F6780E850
:1030600070E060E008959FEF80EC089500240A94DA
:103070001616170618060906089500240A94121653
:103080001306140605060895092E0394000C11F486
:10309000882352F0BB0F40F4BF2B11F460FF04C033
:1030A0006F5F7F4F8F4F9F4F089557FD9058440F8C
:1030B000551F59F05F3F71F04795880F97FB991F97
:1030C00061F09F3F79F08795089512161306140654
:1030D000551FF2CF4695F1DF08C0161617061806E1
:1030E000991FF1CF86957105610508940895E894BC
:1030F000BB2766277727CB0197F90895052E97FB05
:103100001EF400940E94951857FD07D00E94B01835
:1031100007FC03D04EF40C949518509540953095CB
:1031200021953F4F4F4F5F4F089590958095709533
:1031300061957F4F8F4F9F4F08950E94D218A59F92
:10314000900DB49F900DA49F800D911D11240895A2
:10315000B7FF0C949D180E949D18821B930B089535
:10316000A1E21A2EAA1BBB1BFD010DC0AA1FBB1F8B
:10317000EE1FFF1FA217B307E407F50720F0A21BFD
:10318000B30BE40BF50B661F771F881F991F1A946A
:1031900069F760957095809590959B01AC01BD0194
:1031A000CF010895A29FB001B39FC001A39F700DEE
:1031B000811D1124911DB29F700D811D1124911D3F
:1031C00008955058BB27AA270E94F9180C94441858
:1031D0000E94361838F00E943D1820F039F49F3FC5
:1031E00019F426F40C9433180EF4E095E7FB0C94D4
:1031F0002D18E92F0E94551858F3BA176207730764
:103200008407950720F079F4A6F50C9477180EF44E
:10321000E0950B2EBA2FA02D0B01B90190010C01E6
:10322000CA01A0011124FF27591B99F0593F50F4FE
:10323000503E68F11A16F040A22F232F342F442756
:10324000585FF3CF469537952795A795F04053954E
:10325000C9F77EF41F16BA0B620B730B840BBAF01E
:103260009150A1F0FF0FBB1F661F771F881FC2F789
:103270000EC0BA0F621F731F841F48F4879577959D
:103280006795B795F7959E3F08F0B0CF9395880F57
:1032900008F09927EE0F9795879508950E94621977
:1032A0000C9444180E943D1858F00E94361840F0C3
:1032B00029F45F3F29F00C942D1851110C947818C3
:1032C0000C9433180E94551868F39923B1F35523D1
:1032D00091F3951B550BBB27AA2762177307840729
:1032E00038F09F5F5F4F220F331F441FAA1FA9F3BF
:1032F00035D00E2E3AF0E0E832D091505040E695AD
:10330000001CCAF72BD0FE2F29D0660F771F881F0D
:10331000BB1F261737074807AB07B0E809F0BB0B00
:10332000802DBF01FF2793585F4F3AF09E3F510514
:1033300078F00C942D180C9478185F3FE4F3983EC5
:10334000D4F3869577956795B795F7959F5FC9F7FD
:10335000880F911D9695879597F90895E1E0660F7E
:10336000771F881FBB1F621773078407BA0720F0F7
:10337000621B730B840BBA0BEE1F88F7E095089560
:103380000E949C1708F48FEF08950E949C17880BE9
:10339000990B0895991B79E004C0991F961708F0BE
:1033A000961B881F7A95C9F780950895EE0FFF1F29
:1033B000881F8BBF0790F691E02D19940E94D218B8
:1033C000B7FF0895821B930B08950F931F93CF931C
:1033D000DF938230910510F482E090E0E0912D06B9
:1033E000F0912E0630E020E0B0E0A0E0309799F4B4
:1033F0002115310509F44AC0281B390B2430310549
:10340000D8F58A819B816115710589F1FB01938350
:103410008283FE0111C040815181028113814817CE
:103420005907E0F04817590799F4109761F0129680
:103430000C93129713961C933296CF01DF91CF9184
:103440001F910F91089500932D0610932E06F4CF2F
:103450002115310551F04217530738F0A901DB015E
:103460009A01BD01DF01F801C1CFEF01F9CF9093BF
:103470002E0680932D06CDCFFE01E20FF31F819320
:1034800091932250310939832883D7CF20912B067D
:1034900030912C06232B41F420910202309103023B
:1034A00030932C0620932B062091000230910102CC
:1034B0002115310541F42DB73EB7409104025091DA
:1034C0000502241B350BE0912B06F0912C06E21728
:1034D000F307A0F42E1B3F0B2817390778F0AC0137
:1034E0004E5F5F4F2417350748F04E0F5F1F509314
:1034F0002C0640932B06819391939FCFF0E0E0E060
:103500009CCFCF93DF930097E9F0FC0132971382B1
:103510001282A0912D06B0912E06ED0130E020E040
:103520001097A1F420813181820F931F20912B06E7
:1035300030912C062817390709F061C0F0932C064A
:10354000E0932B06DF91CF910895EA01CE17DF07B4
:10355000E8F54A815B819E0141155105B1F7E9010A
:10356000FB83EA8349915991C40FD51FEC17FD07DE
:1035700061F4808191810296840F951FE9019983FE
:103580008883828193819B838A83F0E0E0E01296B6
:103590008D919C9113970097B9F52D913C911197BE
:1035A000CD010296820F931F20912B0630912C069D
:1035B0002817390739F6309751F510922E061092D8
:1035C0002D06B0932C06A0932B06BCCFD383C283C9
:1035D00040815181840F951FC817D90761F44E5F50
:1035E0005F4F88819981480F591F518340838A8199
:1035F0009B81938382832115310509F0B0CFF0932D
:103600002E06E0932D069ECFFD01DC01C0CF138274
:103610001282D7CF4F925F926F927F928F929F923A
:10362000AF92BF92CF92DF92EF92FF920F931F93D0
:10363000CF93DF938C01009799F4CB01DF91CF9169
:103640001F910F91FF90EF90DF90CF90BF90AF90C0
:103650009F908F907F906F905F904F900C94E519A2
:10366000FC01E60FF71F9C0122503109E217F30716
:1036700008F4AEC0D901CD91DC911197C617D707D8
:1036800020F1C530D10578F0CE0104978617970751
:1036900050F0C61BD70B2297C193D1936D937C93A7
:1036A000CF010E94811AC801DF91CF911F910F9124
:1036B000FF90EF90DF90CF90BF90AF909F908F9052
:1036C0007F906F905F904F9008955B01AC1ABD0A98
:1036D0004C018C0E9D1EA0912D06B0912E06512CF2
:1036E000412CF12CE12C109731F580912B06909113
:1036F0002C068815990509F05CC04616570608F097
:1037000058C08091000290910102009741F48DB75A
:103710009EB74091040250910502841B950BE81757
:10372000F90708F055C0F0932C06E0932B06F90139
:1037300071836083B8CF8D919C91119712966C9094
:10374000129713967C901397A815B90559F56C013B
:1037500042E0C40ED11CCA14DB0420F1AC014A19AA
:103760005B09DA011296159780F0628273825183A9
:103770004083D9016D937C93E114F10471F0D7017A
:103780001396FC93EE9312978ECF22968C0F9D1F6B
:10379000F90191838083F301EFCFF0932E06E0933C
:1037A0002D0681CF4816590608F42C017D01D3015E
:1037B0009ACFCB010E94E5197C01009749F0AE0138
:1037C000B8010E94EB1BC8010E94811A87016BCFD0
:1037D00010E000E068CFFB01DC0102C001900D9217
:1037E00041505040D8F70895FB01DC018D910190C4
:1037F00080190110D9F3990B0895FB01DC010190A8
:103800000D920020E1F7089511E0C4ECD1E000E052
:1038100006C0802FFE010E94D6192196011DC53CCD
:0C382000D10780E00807A9F7F894FFCF5B
:10382C0000002F06800000000000C806E805150601
:10383C001507860624067806000000004B0AE805EA
:10384C00C808E705000000003508E805C80834087A
:10385C009108A7081C080D0A005761726E696E6703
:10386C003A5048206F6620746F6F206C6F7700554C
:10387C00736520646F6C6F6D697465206C696D6520
:10388C002C2062616B696E6720736F6461005761F5
:10389C00726E696E673A5048206F6620746F6F20A5
:1038AC0068696768005573652073756C6675722C52
:1038BC0020616C756D696E756D2073756C666174C5
:1038CC0065206F722073756C667572696320616315
:1038DC006964004D6F6973747572652069733A2061
:1038EC0000250043726F703A004E65656420697262
:1038FC007269676174696F6E21005475726E696EBE
:10390C0067206F6E0057617465722070756D700062
:10391C005475726E696E67206F6666005761726EC1
:10392C00696E673A4F76657273617475726174690A
:10393C006F6E2D20506C6561736520696D70726FB0
:10394C00766520647261696E616765207379737442
:10395C00656D004661696C656420746F20726561E9
:10396C00642066726F6D204448542073656E736FCB
:10397C007221004F70656E696E672E2E2E00436C9F
:10398C006F73696E672E2E2E0041646A75737420F6
:10399C0054656D700048756D203D20005048203DE9
:1039AC002000617370617261677573006761726C7E
:1039BC006963006265616E7300537461626C6520AB
:1039CC0070680072696365006D616E676F0063619A
:0639DC007368657700002E
:00000001FF
